{
  "_format": "hh-sol-artifact-1",
  "contractName": "Feedback",
  "sourceName": "contracts/Feedback.sol",
  "abi": [
    {
      "inputs": [
        {
          "internalType": "address",
          "name": "_semaphoreAddress",
          "type": "address"
        },
        {
          "internalType": "uint256",
          "name": "_groupId",
          "type": "uint256"
        },
        {
          "internalType": "address",
          "name": "_nftAddress",
          "type": "address"
        }
      ],
      "stateMutability": "nonpayable",
      "type": "constructor"
    },
    {
      "inputs": [],
      "name": "Feedback__UserAlreadyExists",
      "type": "error"
    },
    {
      "anonymous": false,
      "inputs": [
        {
          "indexed": false,
          "internalType": "uint256",
          "name": "groupId",
          "type": "uint256"
        },
        {
          "indexed": true,
          "internalType": "address",
          "name": "creator",
          "type": "address"
        }
      ],
      "name": "CreateGroup",
      "type": "event"
    },
    {
      "anonymous": false,
      "inputs": [
        {
          "indexed": false,
          "internalType": "uint256",
          "name": "feedback",
          "type": "uint256"
        }
      ],
      "name": "NewFeedback",
      "type": "event"
    },
    {
      "anonymous": false,
      "inputs": [
        {
          "indexed": false,
          "internalType": "bytes32",
          "name": "username",
          "type": "bytes32"
        },
        {
          "indexed": false,
          "internalType": "uint256",
          "name": "identifyCommitment",
          "type": "uint256"
        }
      ],
      "name": "NewUser",
      "type": "event"
    },
    {
      "anonymous": false,
      "inputs": [
        {
          "indexed": true,
          "internalType": "address",
          "name": "previousOwner",
          "type": "address"
        },
        {
          "indexed": true,
          "internalType": "address",
          "name": "newOwner",
          "type": "address"
        }
      ],
      "name": "OwnershipTransferred",
      "type": "event"
    },
    {
      "inputs": [
        {
          "internalType": "address",
          "name": "_address",
          "type": "address"
        }
      ],
      "name": "addAdminAddress",
      "outputs": [],
      "stateMutability": "nonpayable",
      "type": "function"
    },
    {
      "inputs": [
        {
          "internalType": "address",
          "name": "",
          "type": "address"
        }
      ],
      "name": "adminAddresses",
      "outputs": [
        {
          "internalType": "bool",
          "name": "",
          "type": "bool"
        }
      ],
      "stateMutability": "view",
      "type": "function"
    },
    {
      "inputs": [
        {
          "internalType": "uint256",
          "name": "_groupId",
          "type": "uint256"
        }
      ],
      "name": "createGroup",
      "outputs": [],
      "stateMutability": "nonpayable",
      "type": "function"
    },
    {
      "inputs": [
        {
          "internalType": "bytes32",
          "name": "_username",
          "type": "bytes32"
        }
      ],
      "name": "getUserInfo",
      "outputs": [
        {
          "internalType": "uint256",
          "name": "",
          "type": "uint256"
        }
      ],
      "stateMutability": "view",
      "type": "function"
    },
    {
      "inputs": [],
      "name": "groupId",
      "outputs": [
        {
          "internalType": "uint256",
          "name": "",
          "type": "uint256"
        }
      ],
      "stateMutability": "view",
      "type": "function"
    },
    {
      "inputs": [
        {
          "internalType": "uint256",
          "name": "_identityCommitment",
          "type": "uint256"
        },
        {
          "internalType": "bytes32",
          "name": "_username",
          "type": "bytes32"
        }
      ],
      "name": "joinGroup",
      "outputs": [],
      "stateMutability": "nonpayable",
      "type": "function"
    },
    {
      "inputs": [],
      "name": "nftAddress",
      "outputs": [
        {
          "internalType": "address",
          "name": "",
          "type": "address"
        }
      ],
      "stateMutability": "view",
      "type": "function"
    },
    {
      "inputs": [],
      "name": "owner",
      "outputs": [
        {
          "internalType": "address",
          "name": "",
          "type": "address"
        }
      ],
      "stateMutability": "view",
      "type": "function"
    },
    {
      "inputs": [
        {
          "internalType": "address",
          "name": "_address",
          "type": "address"
        }
      ],
      "name": "removeAdminAddress",
      "outputs": [],
      "stateMutability": "nonpayable",
      "type": "function"
    },
    {
      "inputs": [],
      "name": "renounceOwnership",
      "outputs": [],
      "stateMutability": "nonpayable",
      "type": "function"
    },
    {
      "inputs": [],
      "name": "semaphore",
      "outputs": [
        {
          "internalType": "contract ISemaphore",
          "name": "",
          "type": "address"
        }
      ],
      "stateMutability": "view",
      "type": "function"
    },
    {
      "inputs": [
        {
          "internalType": "uint256",
          "name": "_feedback",
          "type": "uint256"
        },
        {
          "internalType": "uint256",
          "name": "_merkleTreeRoot",
          "type": "uint256"
        },
        {
          "internalType": "uint256",
          "name": "_nullifierHash",
          "type": "uint256"
        },
        {
          "internalType": "uint256[8]",
          "name": "_proof",
          "type": "uint256[8]"
        }
      ],
      "name": "sendFeedback",
      "outputs": [],
      "stateMutability": "nonpayable",
      "type": "function"
    },
    {
      "inputs": [
        {
          "internalType": "address",
          "name": "_newNftAddress",
          "type": "address"
        }
      ],
      "name": "setNftAddress",
      "outputs": [],
      "stateMutability": "nonpayable",
      "type": "function"
    },
    {
      "inputs": [
        {
          "internalType": "address",
          "name": "newOwner",
          "type": "address"
        }
      ],
      "name": "transferOwnership",
      "outputs": [],
      "stateMutability": "nonpayable",
      "type": "function"
    }
  ],
  "bytecode": "0x60806040523480156200001157600080fd5b50604051620016e5380380620016e583398181016040528101906200003791906200027b565b620000576200004b6200018160201b60201c565b6200018960201b60201c565b82600160006101000a81548173ffffffffffffffffffffffffffffffffffffffff021916908373ffffffffffffffffffffffffffffffffffffffff1602179055508160038190555080600260006101000a81548173ffffffffffffffffffffffffffffffffffffffff021916908373ffffffffffffffffffffffffffffffffffffffff160217905550600160009054906101000a900473ffffffffffffffffffffffffffffffffffffffff1673ffffffffffffffffffffffffffffffffffffffff16639c1121416003546014306040518463ffffffff1660e01b8152600401620001449392919062000304565b600060405180830381600087803b1580156200015f57600080fd5b505af115801562000174573d6000803e3d6000fd5b50505050505050620003c7565b600033905090565b60008060009054906101000a900473ffffffffffffffffffffffffffffffffffffffff169050816000806101000a81548173ffffffffffffffffffffffffffffffffffffffff021916908373ffffffffffffffffffffffffffffffffffffffff1602179055508173ffffffffffffffffffffffffffffffffffffffff168173ffffffffffffffffffffffffffffffffffffffff167f8be0079c531659141344cd1fd0a4f28419497f9722a3daafe3b4186f6b6457e060405160405180910390a35050565b6000815190506200025e8162000393565b92915050565b6000815190506200027581620003ad565b92915050565b6000806000606084860312156200029157600080fd5b6000620002a1868287016200024d565b9350506020620002b48682870162000264565b9250506040620002c7868287016200024d565b9150509250925092565b620002dc8162000341565b82525050565b620002ed816200037f565b82525050565b620002fe8162000375565b82525050565b60006060820190506200031b6000830186620002f3565b6200032a6020830185620002e2565b620003396040830184620002d1565b949350505050565b60006200034e8262000355565b9050919050565b600073ffffffffffffffffffffffffffffffffffffffff82169050919050565b6000819050919050565b60006200038c8262000375565b9050919050565b6200039e8162000341565b8114620003aa57600080fd5b50565b620003b88162000375565b8114620003c457600080fd5b50565b61130e80620003d76000396000f3fe608060405234801561001057600080fd5b50600436106100e95760003560e01c80638da5cb5b1161008c578063a3867d9111610066578063a3867d9114610210578063adff8b0f1461022c578063d18ed1e91461025c578063f2fde38b14610278576100e9565b80638da5cb5b146101b857806395101181146101d6578063a0f44c92146101f2576100e9565b80635bf8633a116100c85780635bf8633a1461015657806365bf60e014610174578063715018a6146101905780637b5d25341461019a576100e9565b80624fba00146100ee5780630b102d1a1461010a5780634ed38faf14610126575b600080fd5b61010860048036038101906101039190610ca3565b610294565b005b610124600480360381019061011f9190610ca3565b6102f7565b005b610140600480360381019061013b9190610ca3565b6103b3565b60405161014d9190610f1c565b60405180910390f35b61015e6103d3565b60405161016b9190610f01565b60405180910390f35b61018e60048036038101906101899190610cf5565b6103f9565b005b610198610532565b005b6101a2610546565b6040516101af9190610f60565b60405180910390f35b6101c061056c565b6040516101cd9190610f01565b60405180910390f35b6101f060048036038101906101eb9190610ca3565b610595565b005b6101fa6105f8565b604051610207919061101b565b60405180910390f35b61022a60048036038101906102259190610d47565b6105fe565b005b61024660048036038101906102419190610ccc565b61089e565b604051610253919061101b565b60405180910390f35b61027660048036038101906102719190610d83565b61098b565b005b610292600480360381019061028d9190610ca3565b610a63565b005b61029c610ae7565b6001600460008373ffffffffffffffffffffffffffffffffffffffff1673ffffffffffffffffffffffffffffffffffffffff16815260200190815260200160002060006101000a81548160ff02191690831515021790555050565b6102ff610ae7565b600073ffffffffffffffffffffffffffffffffffffffff168173ffffffffffffffffffffffffffffffffffffffff16141561036f576040517f08c379a000000000000000000000000000000000000000000000000000000000815260040161036690610fbb565b60405180910390fd5b80600260006101000a81548173ffffffffffffffffffffffffffffffffffffffff021916908373ffffffffffffffffffffffffffffffffffffffff16021790555050565b60046020528060005260406000206000915054906101000a900460ff1681565b600260009054906101000a900473ffffffffffffffffffffffffffffffffffffffff1681565b600460003373ffffffffffffffffffffffffffffffffffffffff1673ffffffffffffffffffffffffffffffffffffffff16815260200190815260200160002060009054906101000a900460ff1661044f57600080fd5b600160009054906101000a900473ffffffffffffffffffffffffffffffffffffffff1673ffffffffffffffffffffffffffffffffffffffff16639c112141826014306040518463ffffffff1660e01b81526004016104af93929190611036565b600060405180830381600087803b1580156104c957600080fd5b505af11580156104dd573d6000803e3d6000fd5b505050503073ffffffffffffffffffffffffffffffffffffffff167fe4bb0e26761d5d076fa0ebfc93465b43c9af8fc07ba75df200d6c102accaacd382604051610527919061101b565b60405180910390a250565b61053a610ae7565b6105446000610b65565b565b600160009054906101000a900473ffffffffffffffffffffffffffffffffffffffff1681565b60008060009054906101000a900473ffffffffffffffffffffffffffffffffffffffff16905090565b61059d610ae7565b6000600460008373ffffffffffffffffffffffffffffffffffffffff1673ffffffffffffffffffffffffffffffffffffffff16815260200190815260200160002060006101000a81548160ff02191690831515021790555050565b60035481565b6000600260009054906101000a900473ffffffffffffffffffffffffffffffffffffffff16905060008173ffffffffffffffffffffffffffffffffffffffff166370a08231336040518263ffffffff1660e01b81526004016106609190610f01565b60206040518083038186803b15801561067857600080fd5b505afa15801561068c573d6000803e3d6000fd5b505050506040513d601f19601f820116820180604052508101906106b09190610d1e565b116106f0576040517f08c379a00000000000000000000000000000000000000000000000000000000081526004016106e790610ffb565b60405180910390fd5b6000600560003373ffffffffffffffffffffffffffffffffffffffff1673ffffffffffffffffffffffffffffffffffffffff1681526020019081526020016000206000848152602001908152602001600020541461077a576040517ff9ad425b00000000000000000000000000000000000000000000000000000000815260040160405180910390fd5b600160009054906101000a900473ffffffffffffffffffffffffffffffffffffffff1673ffffffffffffffffffffffffffffffffffffffff16631783efc3600354856040518363ffffffff1660e01b81526004016107d992919061106d565b600060405180830381600087803b1580156107f357600080fd5b505af1158015610807573d6000803e3d6000fd5b5050505082600560003373ffffffffffffffffffffffffffffffffffffffff1673ffffffffffffffffffffffffffffffffffffffff1681526020019081526020016000206000848152602001908152602001600020819055507fae47f164227114dd5d6cc00748ec0627bd5e6f06ed17b1b574c03d1981f479aa8284604051610891929190610f37565b60405180910390a1505050565b600080600560003373ffffffffffffffffffffffffffffffffffffffff1673ffffffffffffffffffffffffffffffffffffffff1681526020019081526020016000206000848152602001908152602001600020541415610933576040517f08c379a000000000000000000000000000000000000000000000000000000000815260040161092a90610fdb565b60405180910390fd5b600560003373ffffffffffffffffffffffffffffffffffffffff1673ffffffffffffffffffffffffffffffffffffffff1681526020019081526020016000206000838152602001908152602001600020549050919050565b600160009054906101000a900473ffffffffffffffffffffffffffffffffffffffff1673ffffffffffffffffffffffffffffffffffffffff16633bc778e3600354858786600354876040518763ffffffff1660e01b81526004016109f496959493929190611096565b600060405180830381600087803b158015610a0e57600080fd5b505af1158015610a22573d6000803e3d6000fd5b505050507f0b507af84f163b42f6b6a46de3b2fe7b7997eb55cc4ad92a38aa035cbf49c92c84604051610a55919061101b565b60405180910390a150505050565b610a6b610ae7565b600073ffffffffffffffffffffffffffffffffffffffff168173ffffffffffffffffffffffffffffffffffffffff161415610adb576040517f08c379a0000000000000000000000000000000000000000000000000000000008152600401610ad290610f7b565b60405180910390fd5b610ae481610b65565b50565b610aef610c29565b73ffffffffffffffffffffffffffffffffffffffff16610b0d61056c565b73ffffffffffffffffffffffffffffffffffffffff1614610b63576040517f08c379a0000000000000000000000000000000000000000000000000000000008152600401610b5a90610f9b565b60405180910390fd5b565b60008060009054906101000a900473ffffffffffffffffffffffffffffffffffffffff169050816000806101000a81548173ffffffffffffffffffffffffffffffffffffffff021916908373ffffffffffffffffffffffffffffffffffffffff1602179055508173ffffffffffffffffffffffffffffffffffffffff168173ffffffffffffffffffffffffffffffffffffffff167f8be0079c531659141344cd1fd0a4f28419497f9722a3daafe3b4186f6b6457e060405160405180910390a35050565b600033905090565b600081359050610c4081611293565b92915050565b600081905082602060080282011115610c5e57600080fd5b92915050565b600081359050610c73816112aa565b92915050565b600081359050610c88816112c1565b92915050565b600081519050610c9d816112c1565b92915050565b600060208284031215610cb557600080fd5b6000610cc384828501610c31565b91505092915050565b600060208284031215610cde57600080fd5b6000610cec84828501610c64565b91505092915050565b600060208284031215610d0757600080fd5b6000610d1584828501610c79565b91505092915050565b600060208284031215610d3057600080fd5b6000610d3e84828501610c8e565b91505092915050565b60008060408385031215610d5a57600080fd5b6000610d6885828601610c79565b9250506020610d7985828601610c64565b9150509250929050565b6000806000806101608587031215610d9a57600080fd5b6000610da887828801610c79565b9450506020610db987828801610c79565b9350506040610dca87828801610c79565b9250506060610ddb87828801610c46565b91505092959194509250565b610df081611109565b82525050565b610e036101008383611191565b5050565b610e108161111b565b82525050565b610e1f81611127565b82525050565b610e2e8161115b565b82525050565b610e3d8161117f565b82525050565b6000610e506026836110f8565b9150610e5b826111a0565b604082019050919050565b6000610e736020836110f8565b9150610e7e826111ef565b602082019050919050565b6000610e96601f836110f8565b9150610ea182611218565b602082019050919050565b6000610eb96010836110f8565b9150610ec482611241565b602082019050919050565b6000610edc6011836110f8565b9150610ee78261126a565b602082019050919050565b610efb81611151565b82525050565b6000602082019050610f166000830184610de7565b92915050565b6000602082019050610f316000830184610e07565b92915050565b6000604082019050610f4c6000830185610e16565b610f596020830184610ef2565b9392505050565b6000602082019050610f756000830184610e25565b92915050565b60006020820190508181036000830152610f9481610e43565b9050919050565b60006020820190508181036000830152610fb481610e66565b9050919050565b60006020820190508181036000830152610fd481610e89565b9050919050565b60006020820190508181036000830152610ff481610eac565b9050919050565b6000602082019050818103600083015261101481610ecf565b9050919050565b60006020820190506110306000830184610ef2565b92915050565b600060608201905061104b6000830186610ef2565b6110586020830185610e34565b6110656040830184610de7565b949350505050565b60006040820190506110826000830185610ef2565b61108f6020830184610ef2565b9392505050565b60006101a0820190506110ac6000830189610ef2565b6110b96020830188610ef2565b6110c66040830187610ef2565b6110d36060830186610ef2565b6110e06080830185610ef2565b6110ed60a0830184610df6565b979650505050505050565b600082825260208201905092915050565b600061111482611131565b9050919050565b60008115159050919050565b6000819050919050565b600073ffffffffffffffffffffffffffffffffffffffff82169050919050565b6000819050919050565b60006111668261116d565b9050919050565b600061117882611131565b9050919050565b600061118a82611151565b9050919050565b82818337600083830152505050565b7f4f776e61626c653a206e6577206f776e657220697320746865207a65726f206160008201527f6464726573730000000000000000000000000000000000000000000000000000602082015250565b7f4f776e61626c653a2063616c6c6572206973206e6f7420746865206f776e6572600082015250565b7f6e6577206164647265737320697320746865207a65726f206164647265737300600082015250565b7f7468657265206973206e6f207573657200000000000000000000000000000000600082015250565b7f796f7520646f6e742068617665204e4654000000000000000000000000000000600082015250565b61129c81611109565b81146112a757600080fd5b50565b6112b381611127565b81146112be57600080fd5b50565b6112ca81611151565b81146112d557600080fd5b5056fea2646970667358221220b5f2c67ff040f0446362097d9e6834f90a3be28acef8c9bc976cac3dfe58acfb64736f6c63430008040033",
  "linkReferences": {},
  "deployedLinkReferences": {}
}