{
  "_format": "hh-sol-artifact-1",
  "contractName": "Feedback",
  "sourceName": "contracts/Feedback.sol",
  "abi": [
    {
      "inputs": [
        {
          "internalType": "address",
          "name": "_semaphoreAddress",
          "type": "address"
        },
        {
          "internalType": "uint256",
          "name": "_groupId",
          "type": "uint256"
        },
        {
          "internalType": "address",
          "name": "_nftAddress",
          "type": "address"
        }
      ],
      "stateMutability": "nonpayable",
      "type": "constructor"
    },
    {
      "inputs": [],
      "name": "Feedback__UserAlreadyExists",
      "type": "error"
    },
    {
      "anonymous": false,
      "inputs": [
        {
          "indexed": false,
          "internalType": "uint256",
          "name": "groupId",
          "type": "uint256"
        },
        {
          "indexed": true,
          "internalType": "address",
          "name": "creator",
          "type": "address"
        }
      ],
      "name": "CreateGroup",
      "type": "event"
    },
    {
      "anonymous": false,
      "inputs": [
        {
          "indexed": false,
          "internalType": "uint256",
          "name": "feedback",
          "type": "uint256"
        }
      ],
      "name": "NewFeedback",
      "type": "event"
    },
    {
      "anonymous": false,
      "inputs": [
        {
          "indexed": false,
          "internalType": "bytes32",
          "name": "username",
          "type": "bytes32"
        },
        {
          "indexed": false,
          "internalType": "uint256",
          "name": "identifyCommitment",
          "type": "uint256"
        }
      ],
      "name": "NewUser",
      "type": "event"
    },
    {
      "anonymous": false,
      "inputs": [
        {
          "indexed": true,
          "internalType": "address",
          "name": "previousOwner",
          "type": "address"
        },
        {
          "indexed": true,
          "internalType": "address",
          "name": "newOwner",
          "type": "address"
        }
      ],
      "name": "OwnershipTransferred",
      "type": "event"
    },
    {
      "inputs": [
        {
          "internalType": "address",
          "name": "_address",
          "type": "address"
        }
      ],
      "name": "addAdminAddress",
      "outputs": [],
      "stateMutability": "nonpayable",
      "type": "function"
    },
    {
      "inputs": [
        {
          "internalType": "address",
          "name": "",
          "type": "address"
        }
      ],
      "name": "adminAddresses",
      "outputs": [
        {
          "internalType": "bool",
          "name": "",
          "type": "bool"
        }
      ],
      "stateMutability": "view",
      "type": "function"
    },
    {
      "inputs": [
        {
          "internalType": "uint256",
          "name": "",
          "type": "uint256"
        }
      ],
      "name": "adminAddressesArray",
      "outputs": [
        {
          "internalType": "address",
          "name": "",
          "type": "address"
        }
      ],
      "stateMutability": "view",
      "type": "function"
    },
    {
      "inputs": [
        {
          "internalType": "uint256",
          "name": "_groupId",
          "type": "uint256"
        }
      ],
      "name": "createGroup",
      "outputs": [],
      "stateMutability": "nonpayable",
      "type": "function"
    },
    {
      "inputs": [],
      "name": "getAdminAddressList",
      "outputs": [
        {
          "internalType": "address[]",
          "name": "",
          "type": "address[]"
        }
      ],
      "stateMutability": "view",
      "type": "function"
    },
    {
      "inputs": [
        {
          "internalType": "bytes32",
          "name": "_username",
          "type": "bytes32"
        }
      ],
      "name": "getUserInfo",
      "outputs": [
        {
          "internalType": "uint256",
          "name": "",
          "type": "uint256"
        }
      ],
      "stateMutability": "view",
      "type": "function"
    },
    {
      "inputs": [],
      "name": "groupId",
      "outputs": [
        {
          "internalType": "uint256",
          "name": "",
          "type": "uint256"
        }
      ],
      "stateMutability": "view",
      "type": "function"
    },
    {
      "inputs": [
        {
          "internalType": "uint256",
          "name": "_identityCommitment",
          "type": "uint256"
        },
        {
          "internalType": "bytes32",
          "name": "_username",
          "type": "bytes32"
        }
      ],
      "name": "joinGroup",
      "outputs": [],
      "stateMutability": "nonpayable",
      "type": "function"
    },
    {
      "inputs": [],
      "name": "nftAddress",
      "outputs": [
        {
          "internalType": "address",
          "name": "",
          "type": "address"
        }
      ],
      "stateMutability": "view",
      "type": "function"
    },
    {
      "inputs": [],
      "name": "owner",
      "outputs": [
        {
          "internalType": "address",
          "name": "",
          "type": "address"
        }
      ],
      "stateMutability": "view",
      "type": "function"
    },
    {
      "inputs": [
        {
          "internalType": "address",
          "name": "_address",
          "type": "address"
        }
      ],
      "name": "removeAdminAddress",
      "outputs": [],
      "stateMutability": "nonpayable",
      "type": "function"
    },
    {
      "inputs": [],
      "name": "renounceOwnership",
      "outputs": [],
      "stateMutability": "nonpayable",
      "type": "function"
    },
    {
      "inputs": [],
      "name": "semaphore",
      "outputs": [
        {
          "internalType": "contract ISemaphore",
          "name": "",
          "type": "address"
        }
      ],
      "stateMutability": "view",
      "type": "function"
    },
    {
      "inputs": [
        {
          "internalType": "uint256",
          "name": "_feedback",
          "type": "uint256"
        },
        {
          "internalType": "uint256",
          "name": "_merkleTreeRoot",
          "type": "uint256"
        },
        {
          "internalType": "uint256",
          "name": "_nullifierHash",
          "type": "uint256"
        },
        {
          "internalType": "uint256[8]",
          "name": "_proof",
          "type": "uint256[8]"
        }
      ],
      "name": "sendFeedback",
      "outputs": [],
      "stateMutability": "nonpayable",
      "type": "function"
    },
    {
      "inputs": [
        {
          "internalType": "address",
          "name": "_newNftAddress",
          "type": "address"
        }
      ],
      "name": "setNftAddress",
      "outputs": [],
      "stateMutability": "nonpayable",
      "type": "function"
    },
    {
      "inputs": [
        {
          "internalType": "address",
          "name": "newOwner",
          "type": "address"
        }
      ],
      "name": "transferOwnership",
      "outputs": [],
      "stateMutability": "nonpayable",
      "type": "function"
    }
  ],
  "bytecode": "0x60806040523480156200001157600080fd5b5060405162001ede38038062001ede833981810160405281019062000037919062000336565b620000576200004b6200023c60201b60201c565b6200024460201b60201c565b82600160006101000a81548173ffffffffffffffffffffffffffffffffffffffff021916908373ffffffffffffffffffffffffffffffffffffffff1602179055508160048190555080600260006101000a81548173ffffffffffffffffffffffffffffffffffffffff021916908373ffffffffffffffffffffffffffffffffffffffff160217905550600160009054906101000a900473ffffffffffffffffffffffffffffffffffffffff1673ffffffffffffffffffffffffffffffffffffffff16639c1121416004546014306040518463ffffffff1660e01b81526004016200014493929190620003bf565b600060405180830381600087803b1580156200015f57600080fd5b505af115801562000174573d6000803e3d6000fd5b505050506001600560003373ffffffffffffffffffffffffffffffffffffffff1673ffffffffffffffffffffffffffffffffffffffff16815260200190815260200160002060006101000a81548160ff0219169083151502179055506003339080600181540180825580915050600190039060005260206000200160009091909190916101000a81548173ffffffffffffffffffffffffffffffffffffffff021916908373ffffffffffffffffffffffffffffffffffffffff16021790555050505062000482565b600033905090565b60008060009054906101000a900473ffffffffffffffffffffffffffffffffffffffff169050816000806101000a81548173ffffffffffffffffffffffffffffffffffffffff021916908373ffffffffffffffffffffffffffffffffffffffff1602179055508173ffffffffffffffffffffffffffffffffffffffff168173ffffffffffffffffffffffffffffffffffffffff167f8be0079c531659141344cd1fd0a4f28419497f9722a3daafe3b4186f6b6457e060405160405180910390a35050565b60008151905062000319816200044e565b92915050565b600081519050620003308162000468565b92915050565b6000806000606084860312156200034c57600080fd5b60006200035c8682870162000308565b93505060206200036f868287016200031f565b9250506040620003828682870162000308565b9150509250925092565b6200039781620003fc565b82525050565b620003a8816200043a565b82525050565b620003b98162000430565b82525050565b6000606082019050620003d66000830186620003ae565b620003e560208301856200039d565b620003f460408301846200038c565b949350505050565b6000620004098262000410565b9050919050565b600073ffffffffffffffffffffffffffffffffffffffff82169050919050565b6000819050919050565b6000620004478262000430565b9050919050565b6200045981620003fc565b81146200046557600080fd5b50565b620004738162000430565b81146200047f57600080fd5b50565b611a4c80620004926000396000f3fe608060405234801561001057600080fd5b50600436106100ff5760003560e01c80639510118111610097578063adff8b0f11610066578063adff8b0f14610272578063d18ed1e9146102a2578063d5e18fb3146102be578063f2fde38b146102dc576100ff565b806395101181146101ec5780639e82338c14610208578063a0f44c9214610238578063a3867d9114610256576100ff565b806365bf60e0116100d357806365bf60e01461018a578063715018a6146101a65780637b5d2534146101b05780638da5cb5b146101ce576100ff565b80624fba00146101045780630b102d1a146101205780634ed38faf1461013c5780635bf8633a1461016c575b600080fd5b61011e6004803603810190610119919061117d565b6102f8565b005b61013a6004803603810190610135919061117d565b61044b565b005b6101566004803603810190610151919061117d565b610507565b60405161016391906114e3565b60405180910390f35b610174610527565b60405161018191906114a6565b60405180910390f35b6101a4600480360381019061019f91906111cf565b61054d565b005b6101ae61068d565b005b6101b86106a1565b6040516101c59190611527565b60405180910390f35b6101d66106c7565b6040516101e391906114a6565b60405180910390f35b6102066004803603810190610201919061117d565b6106f0565b005b610222600480360381019061021d91906111cf565b610a05565b60405161022f91906114a6565b60405180910390f35b610240610a44565b60405161024d9190611622565b60405180910390f35b610270600480360381019061026b9190611221565b610a4a565b005b61028c600480360381019061028791906111a6565b610cea565b6040516102999190611622565b60405180910390f35b6102bc60048036038101906102b7919061125d565b610dd7565b005b6102c6610eaf565b6040516102d391906114c1565b60405180910390f35b6102f660048036038101906102f1919061117d565b610f3d565b005b610300610fc1565b600560008273ffffffffffffffffffffffffffffffffffffffff1673ffffffffffffffffffffffffffffffffffffffff16815260200190815260200160002060009054906101000a900460ff161561038d576040517f08c379a000000000000000000000000000000000000000000000000000000000815260040161038490611562565b60405180910390fd5b6001600560008373ffffffffffffffffffffffffffffffffffffffff1673ffffffffffffffffffffffffffffffffffffffff16815260200190815260200160002060006101000a81548160ff0219169083151502179055506003819080600181540180825580915050600190039060005260206000200160009091909190916101000a81548173ffffffffffffffffffffffffffffffffffffffff021916908373ffffffffffffffffffffffffffffffffffffffff16021790555050565b610453610fc1565b600073ffffffffffffffffffffffffffffffffffffffff168173ffffffffffffffffffffffffffffffffffffffff1614156104c3576040517f08c379a00000000000000000000000000000000000000000000000000000000081526004016104ba906115c2565b60405180910390fd5b80600260006101000a81548173ffffffffffffffffffffffffffffffffffffffff021916908373ffffffffffffffffffffffffffffffffffffffff16021790555050565b60056020528060005260406000206000915054906101000a900460ff1681565b600260009054906101000a900473ffffffffffffffffffffffffffffffffffffffff1681565b600560003373ffffffffffffffffffffffffffffffffffffffff1673ffffffffffffffffffffffffffffffffffffffff16815260200190815260200160002060009054906101000a900460ff166105a357600080fd5b600160009054906101000a900473ffffffffffffffffffffffffffffffffffffffff1673ffffffffffffffffffffffffffffffffffffffff16639c112141826014306040518463ffffffff1660e01b81526004016106039392919061163d565b600060405180830381600087803b15801561061d57600080fd5b505af1158015610631573d6000803e3d6000fd5b50505050806004819055503073ffffffffffffffffffffffffffffffffffffffff167fe4bb0e26761d5d076fa0ebfc93465b43c9af8fc07ba75df200d6c102accaacd3826040516106829190611622565b60405180910390a250565b610695610fc1565b61069f600061103f565b565b600160009054906101000a900473ffffffffffffffffffffffffffffffffffffffff1681565b60008060009054906101000a900473ffffffffffffffffffffffffffffffffffffffff16905090565b6106f8610fc1565b600560008273ffffffffffffffffffffffffffffffffffffffff1673ffffffffffffffffffffffffffffffffffffffff16815260200190815260200160002060009054906101000a900460ff16610784576040517f08c379a000000000000000000000000000000000000000000000000000000000815260040161077b90611582565b60405180910390fd5b6000600560008373ffffffffffffffffffffffffffffffffffffffff1673ffffffffffffffffffffffffffffffffffffffff16815260200190815260200160002060006101000a81548160ff02191690831515021790555060005b600380549050811015610a01578173ffffffffffffffffffffffffffffffffffffffff166003828154811061083d577f4e487b7100000000000000000000000000000000000000000000000000000000600052603260045260246000fd5b9060005260206000200160009054906101000a900473ffffffffffffffffffffffffffffffffffffffff1673ffffffffffffffffffffffffffffffffffffffff1614156109ee57600360016003805490506108989190611749565b815481106108cf577f4e487b7100000000000000000000000000000000000000000000000000000000600052603260045260246000fd5b9060005260206000200160009054906101000a900473ffffffffffffffffffffffffffffffffffffffff1660038281548110610934577f4e487b7100000000000000000000000000000000000000000000000000000000600052603260045260246000fd5b9060005260206000200160006101000a81548173ffffffffffffffffffffffffffffffffffffffff021916908373ffffffffffffffffffffffffffffffffffffffff16021790555060038054806109b4577f4e487b7100000000000000000000000000000000000000000000000000000000600052603160045260246000fd5b6001900381819060005260206000200160006101000a81549073ffffffffffffffffffffffffffffffffffffffff02191690559055610a01565b80806109f990611814565b9150506107df565b5050565b60038181548110610a1557600080fd5b906000526020600020016000915054906101000a900473ffffffffffffffffffffffffffffffffffffffff1681565b60045481565b6000600260009054906101000a900473ffffffffffffffffffffffffffffffffffffffff16905060008173ffffffffffffffffffffffffffffffffffffffff166370a08231336040518263ffffffff1660e01b8152600401610aac91906114a6565b60206040518083038186803b158015610ac457600080fd5b505afa158015610ad8573d6000803e3d6000fd5b505050506040513d601f19601f82011682018060405250810190610afc91906111f8565b11610b3c576040517f08c379a0000000000000000000000000000000000000000000000000000000008152600401610b3390611602565b60405180910390fd5b6000600660003373ffffffffffffffffffffffffffffffffffffffff1673ffffffffffffffffffffffffffffffffffffffff16815260200190815260200160002060008481526020019081526020016000205414610bc6576040517ff9ad425b00000000000000000000000000000000000000000000000000000000815260040160405180910390fd5b600160009054906101000a900473ffffffffffffffffffffffffffffffffffffffff1673ffffffffffffffffffffffffffffffffffffffff16631783efc3600454856040518363ffffffff1660e01b8152600401610c25929190611674565b600060405180830381600087803b158015610c3f57600080fd5b505af1158015610c53573d6000803e3d6000fd5b5050505082600660003373ffffffffffffffffffffffffffffffffffffffff1673ffffffffffffffffffffffffffffffffffffffff1681526020019081526020016000206000848152602001908152602001600020819055507fae47f164227114dd5d6cc00748ec0627bd5e6f06ed17b1b574c03d1981f479aa8284604051610cdd9291906114fe565b60405180910390a1505050565b600080600660003373ffffffffffffffffffffffffffffffffffffffff1673ffffffffffffffffffffffffffffffffffffffff1681526020019081526020016000206000848152602001908152602001600020541415610d7f576040517f08c379a0000000000000000000000000000000000000000000000000000000008152600401610d76906115e2565b60405180910390fd5b600660003373ffffffffffffffffffffffffffffffffffffffff1673ffffffffffffffffffffffffffffffffffffffff1681526020019081526020016000206000838152602001908152602001600020549050919050565b600160009054906101000a900473ffffffffffffffffffffffffffffffffffffffff1673ffffffffffffffffffffffffffffffffffffffff16633bc778e3600454858786600454876040518763ffffffff1660e01b8152600401610e409695949392919061169d565b600060405180830381600087803b158015610e5a57600080fd5b505af1158015610e6e573d6000803e3d6000fd5b505050507f0b507af84f163b42f6b6a46de3b2fe7b7997eb55cc4ad92a38aa035cbf49c92c84604051610ea19190611622565b60405180910390a150505050565b60606003805480602002602001604051908101604052809291908181526020018280548015610f3357602002820191906000526020600020905b8160009054906101000a900473ffffffffffffffffffffffffffffffffffffffff1673ffffffffffffffffffffffffffffffffffffffff1681526020019060010190808311610ee9575b5050505050905090565b610f45610fc1565b600073ffffffffffffffffffffffffffffffffffffffff168173ffffffffffffffffffffffffffffffffffffffff161415610fb5576040517f08c379a0000000000000000000000000000000000000000000000000000000008152600401610fac90611542565b60405180910390fd5b610fbe8161103f565b50565b610fc9611103565b73ffffffffffffffffffffffffffffffffffffffff16610fe76106c7565b73ffffffffffffffffffffffffffffffffffffffff161461103d576040517f08c379a0000000000000000000000000000000000000000000000000000000008152600401611034906115a2565b60405180910390fd5b565b60008060009054906101000a900473ffffffffffffffffffffffffffffffffffffffff169050816000806101000a81548173ffffffffffffffffffffffffffffffffffffffff021916908373ffffffffffffffffffffffffffffffffffffffff1602179055508173ffffffffffffffffffffffffffffffffffffffff168173ffffffffffffffffffffffffffffffffffffffff167f8be0079c531659141344cd1fd0a4f28419497f9722a3daafe3b4186f6b6457e060405160405180910390a35050565b600033905090565b60008135905061111a816119d1565b92915050565b60008190508260206008028201111561113857600080fd5b92915050565b60008135905061114d816119e8565b92915050565b600081359050611162816119ff565b92915050565b600081519050611177816119ff565b92915050565b60006020828403121561118f57600080fd5b600061119d8482850161110b565b91505092915050565b6000602082840312156111b857600080fd5b60006111c68482850161113e565b91505092915050565b6000602082840312156111e157600080fd5b60006111ef84828501611153565b91505092915050565b60006020828403121561120a57600080fd5b600061121884828501611168565b91505092915050565b6000806040838503121561123457600080fd5b600061124285828601611153565b92505060206112538582860161113e565b9150509250929050565b600080600080610160858703121561127457600080fd5b600061128287828801611153565b945050602061129387828801611153565b93505060406112a487828801611153565b92505060606112b587828801611120565b91505092959194509250565b60006112cd83836112d9565b60208301905092915050565b6112e28161177d565b82525050565b6112f18161177d565b82525050565b60006113028261170f565b61130c8185611727565b9350611317836116ff565b8060005b8381101561134857815161132f88826112c1565b975061133a8361171a565b92505060018101905061131b565b5085935050505092915050565b6113626101008383611805565b5050565b61136f8161178f565b82525050565b61137e8161179b565b82525050565b61138d816117cf565b82525050565b61139c816117f3565b82525050565b60006113af602683611738565b91506113ba8261188c565b604082019050919050565b60006113d2601b83611738565b91506113dd826118db565b602082019050919050565b60006113f5601783611738565b915061140082611904565b602082019050919050565b6000611418602083611738565b91506114238261192d565b602082019050919050565b600061143b601f83611738565b915061144682611956565b602082019050919050565b600061145e601083611738565b91506114698261197f565b602082019050919050565b6000611481601183611738565b915061148c826119a8565b602082019050919050565b6114a0816117c5565b82525050565b60006020820190506114bb60008301846112e8565b92915050565b600060208201905081810360008301526114db81846112f7565b905092915050565b60006020820190506114f86000830184611366565b92915050565b60006040820190506115136000830185611375565b6115206020830184611497565b9392505050565b600060208201905061153c6000830184611384565b92915050565b6000602082019050818103600083015261155b816113a2565b9050919050565b6000602082019050818103600083015261157b816113c5565b9050919050565b6000602082019050818103600083015261159b816113e8565b9050919050565b600060208201905081810360008301526115bb8161140b565b9050919050565b600060208201905081810360008301526115db8161142e565b9050919050565b600060208201905081810360008301526115fb81611451565b9050919050565b6000602082019050818103600083015261161b81611474565b9050919050565b60006020820190506116376000830184611497565b92915050565b60006060820190506116526000830186611497565b61165f6020830185611393565b61166c60408301846112e8565b949350505050565b60006040820190506116896000830185611497565b6116966020830184611497565b9392505050565b60006101a0820190506116b36000830189611497565b6116c06020830188611497565b6116cd6040830187611497565b6116da6060830186611497565b6116e76080830185611497565b6116f460a0830184611355565b979650505050505050565b6000819050602082019050919050565b600081519050919050565b6000602082019050919050565b600082825260208201905092915050565b600082825260208201905092915050565b6000611754826117c5565b915061175f836117c5565b9250828210156117725761177161185d565b5b828203905092915050565b6000611788826117a5565b9050919050565b60008115159050919050565b6000819050919050565b600073ffffffffffffffffffffffffffffffffffffffff82169050919050565b6000819050919050565b60006117da826117e1565b9050919050565b60006117ec826117a5565b9050919050565b60006117fe826117c5565b9050919050565b82818337600083830152505050565b600061181f826117c5565b91507fffffffffffffffffffffffffffffffffffffffffffffffffffffffffffffffff8214156118525761185161185d565b5b600182019050919050565b7f4e487b7100000000000000000000000000000000000000000000000000000000600052601160045260246000fd5b7f4f776e61626c653a206e6577206f776e657220697320746865207a65726f206160008201527f6464726573730000000000000000000000000000000000000000000000000000602082015250565b7f4164647265737320697320616c726561647920616e2061646d696e0000000000600082015250565b7f41646472657373206973206e6f7420616e2061646d696e000000000000000000600082015250565b7f4f776e61626c653a2063616c6c6572206973206e6f7420746865206f776e6572600082015250565b7f6e6577206164647265737320697320746865207a65726f206164647265737300600082015250565b7f7468657265206973206e6f207573657200000000000000000000000000000000600082015250565b7f796f7520646f6e742068617665204e4654000000000000000000000000000000600082015250565b6119da8161177d565b81146119e557600080fd5b50565b6119f18161179b565b81146119fc57600080fd5b50565b611a08816117c5565b8114611a1357600080fd5b5056fea26469706673582212203c767f81835d9253f6b06a771e2bf2ac536cd4d140aab3e025d913c1ee43556e64736f6c63430008040033",
  "linkReferences": {},
  "deployedLinkReferences": {}
}